:100000000C9446000C9465000C9465000C946500FB
:100010000C9465000C9465000C9465000C946500CC
:100020000C9465000C9465000C9465000C946500BC
:100030000C9465000C94DE000C9465000C94650033
:100040000C9465000C9465000C9465000C9465009C
:100050000C9465000C9465000C9465000C9465008C
:100060000C9465000C9465000C9465000C9465007C
:100070000C9465000C9465000C9465000C9465006C
:100080000C9465000C9465000C94650011241FBE4F
:10009000CFEFD0E4DEBFCDBF11E0A0E0B1E0ECEEE9
:1000A000F5E000E00BBF02C007900D92A231B1074E
:1000B000D9F721E0A2E1B1E001C01D92A931B20758
:1000C000E1F70E94B7020C94F4020C940000CF9365
:1000D000DF9300D01F92CDB7DEB789837B836A831D
:1000E00089818A3031F48A819B81BC018DE00E9434
:1000F000670080EC90E0FC018081882F90E08072A6
:100100009927892BB1F386EC90E02981FC012083AB
:1001100080E090E00F900F900F90DF91CF910895C5
:10012000CF93DF93CDB7DEB781E890E02BE0FC0101
:10013000208388E890E02DE730E0FC0131832083C4
:100140008FE690E022E0FC01208384E890E0FC014F
:100150001182108280910E0190910F01A0911001E7
:10016000B09111018093130190931401A093150194
:10017000B09316018FE590E02FE530E0F901208182
:100180002068FC0120830000DF91CF910895CF9378
:10019000DF93CDB7DEB781E890E0FC01108200006C
:1001A000DF91CF910895CF93DF93CDB7DEB781E094
:1001B000809312010000DF91CF9108951F920F925A
:1001C00000905F000F92112400905B000F922F931C
:1001D0003F934F935F936F937F938F939F93AF93CF
:1001E000BF93EF93FF93CF93DF93CDB7DEB78091AB
:1001F000130190911401A0911501B091160101977E
:10020000A109B1098093130190931401A0931501E2
:10021000B09316018091130190911401A0911501E2
:10022000B0911601892B8A2B8B2B91F40E94D3005D
:1002300080910E0190910F01A0911001B0911101D8
:100240008093130190931401A0931501B0931601AC
:100250000000DF91CF91FF91EF91BF91AF919F91FE
:100260008F917F916F915F914F913F912F910F905F
:1002700000925B000F9000925F000F901F90189506
:10028000CF93DF9300D000D0CDB7DEB769837A83F8
:100290008B839C8389819A81AB81BC8180930E0181
:1002A00090930F01A0931001B093110180910E0162
:1002B00090910F01A0911001B09111018093130151
:1002C00090931401A0931501B093160100000F90B4
:1002D0000F900F900F90DF91CF910895CF93DF9300
:1002E00000D000D0CDB7DEB780E290E0FC01808185
:1002F000809583708B8319821A8280911701909167
:1003000018018230910509F45EC08330910528F40C
:10031000009759F0019791F1D4C08330910509F409
:1003200077C0049709F49CC0CCC08C81882339F431
:1003300084E090E09093180180931701B9C08C81FC
:10034000813039F481E090E0909318018093170197
:10035000AFC08C81823039F482E090E09093180134
:1003600080931701A5C08C81833009F0A1C083E080
:1003700090E090931801809317019AC08C81882394
:1003800039F484E090E0909318018093170192C0B3
:100390008C81813019F481E089838CC08C8182301A
:1003A00039F482E090E0909318018093170182C0A5
:1003B0008C81833009F07EC083E090E09093180137
:1003C0008093170177C08C81882339F484E090E012
:1003D00090931801809317016FC08C81813039F49C
:1003E00081E090E0909318018093170165C08C81A3
:1003F000823019F481E08A835FC08C81833009F0F8
:100400005BC083E090E0909318018093170154C083
:100410008C81882339F484E090E0909318018093D4
:1004200017014CC08C81813039F481E090E09093C9
:1004300018018093170142C08C81823039F482E028
:1004400090E0909318018093170138C08C8183301D
:10045000A9F583E090E090931801809317012EC0D6
:100460008C81882339F484E090E090931801809384
:10047000170126C08C81813039F481E090E090939F
:100480001801809317011CC08C81823039F482E0FE
:1004900090E0909318018093170112C08C818330F3
:1004A00079F483E090E0909318018093170108C0DD
:1004B000000007C0000005C0000003C0000001C02C
:1004C000000080911701909118018230910541F14F
:1004D0008330910528F4009749F0019769F03FC0F7
:1004E0008330910589F10497A1F139C088E290E049
:1004F00027E0FC01208333C01A828981882361F5BB
:1005000088E290E0FC018081893030F588E290E05B
:1005100028E230E0F90120812F5FFC0120831CC01C
:1005200019828A818823D1F488E290E0FC018081DD
:100530008823A1F088E290E028E230E0F9012081F0
:100540002150FC0120830AC088E290E0FC01108267
:1005500006C019821A8203C0000001C0000000001A
:100560000F900F900F900F90DF91CF910895CF9340
:10057000DF9300D0CDB7DEB781E290E0FC011082BE
:1005800082E290E02FEFFC01208384E290E02FEFE5
:10059000FC01208385E290E0FC01108287E290E07C
:1005A0002FEFFC01208388E290E0FC011082109282
:1005B00018011092170185E290E027E0FC012083EA
:1005C00064E670E080E090E00E9440010E949000AC
:1005D00019821A820E946E01000080911201882304
:0C05E000E1F310921201F6CFF894FFCF67
:1005EC000000000200000000670000000000010095
:0205FC000000FD
:00000001FF
