:100000000C9456000C9475000C9475000C947500BB
:100010000C9475000C9475000C9475000C9475008C
:100020000C9475000C9475000C9475000C9475007C
:100030000C9475000C94EE000C9475000C947500F3
:100040000C9475000C9475000C9475000C9475005C
:100050000C9475000C9475000C9475000C9475004C
:100060000C9475000C9475000C9475000C9475003C
:100070000C9475000C9475000C9475000C9475002C
:100080000C9475000C9475000C9475009F01B001E0
:10009000C101D2010502E301F4010C02320238026F
:1000A0003E02440258024A025002580211241FBE66
:1000B000CFEFD0E4DEBFCDBF11E0A0E0B1E0E2E4DD
:1000C000F5E000E00BBF02C007900D92A231B1072E
:1000D000D9F721E0A2E1B1E001C01D92A931B20738
:1000E000E1F70E945E020C949F020C940000CF93F3
:1000F000DF9300D01F92CDB7DEB789837B836A83FD
:1001000089818A3031F48A819B81BC018DE00E9413
:10011000770080EC90E0FC018081882F90E0807275
:100120009927892BB1F386EC90E02981FC0120838B
:1001300080E090E00F900F900F90DF91CF910895A5
:10014000CF93DF93CDB7DEB781E890E02BE0FC01E1
:10015000208388E890E02DE730E0FC0131832083A4
:100160008FE690E022E0FC01208384E890E0FC012F
:100170001182108280910E0190910F01A0911001C7
:10018000B09111018093130190931401A093150174
:10019000B09316018FE590E02FE530E0F901208162
:1001A0002068FC0120830000DF91CF910895CF9358
:1001B000DF93CDB7DEB781E890E0FC01108200004C
:1001C000DF91CF910895CF93DF93CDB7DEB781E074
:1001D000809312010000DF91CF9108951F920F923A
:1001E00000905F000F92112400905B000F922F93FC
:1001F0003F934F935F936F937F938F939F93AF93AF
:10020000BF93EF93FF93CF93DF93CDB7DEB780918A
:10021000130190911401A0911501B091160101975D
:10022000A109B1098093130190931401A0931501C2
:10023000B09316018091130190911401A0911501C2
:10024000B0911601892B8A2B8B2B91F40E94E3002D
:1002500080910E0190910F01A0911001B0911101B8
:100260008093130190931401A0931501B09316018C
:100270000000DF91CF91FF91EF91BF91AF919F91DE
:100280008F917F916F915F914F913F912F910F903F
:1002900000925B000F9000925F000F901F901895E6
:1002A000CF93DF9300D000D0CDB7DEB769837A83D8
:1002B0008B839C8389819A81AB81BC8180930E0161
:1002C00090930F01A0931001B093110180910E0142
:1002D00090910F01A0911001B09111018093130131
:1002E00090931401A0931501B093160100000F9094
:1002F0000F900F900F90DF91CF910895CF93DF93E0
:100300001F92CDB7DEB780E290E0FC01808180953E
:1003100089838091170190911801CC01A0E0B0E091
:1003200040E050E027E030E0841B950B28173907A8
:1003300008F482C08A5B9F4FFC010C94960289816D
:10034000813039F484E090E0909318018093170194
:1003500074C081E090E090931801809317016DC004
:100360008981813039F484E090E090931801809382
:10037000170163C082E090E0909318018093170109
:100380005CC08981813039F484E090E09093180159
:100390008093170152C083E090E0909318018093FE
:1003A00017014BC08981813039F484E090E090934B
:1003B00018018093170141C085E090E090931801E7
:1003C000809317013AC08981813039F484E090E04C
:1003D000909318018093170130C086E090E09093CD
:1003E00018018093170129C08981813039F484E094
:1003F00090E090931801809317011FC082E090E075
:10040000909318018093170118C087E090E09093B3
:1004100018018093170111C08981813039F481E07E
:1004200090E0909318018093170106C087E090E058
:10043000909318018093170100008091170190910B
:100440001801CC01A0E0B0E040E050E027E030E04F
:10045000841B950B2817390748F1825B9F4FFC01DD
:100460000C94960285E290E021E0FC01208321C0FB
:1004700085E290E021E0FC0120831BC085E290E052
:1004800022E0FC01208315C085E290E024E0FC011D
:1004900020830FC085E290E022E0FC01208309C0A8
:1004A00085E290E021E0FC01208303C0000001C050
:1004B000000000000F90DF91CF910895CF93DF935C
:1004C00000D0CDB7DEB781E290E0FC01108280E27F
:1004D00090E02FEFFC01208384E290E02FEFFC01FD
:1004E000208385E290E0FC0110826CE271E080E004
:1004F00090E00E9450010E94A000198285E290E0E5
:10050000FC011082109218011092170180E290E015
:10051000FC01808180958A830E947E010000809189
:1005200012018823E1F310921201F0CFEE0FFF1FAA
:100530000024001C0BBE0790F691E02D0994F8945E
:02054000FFCFEB
:10054200000000020000000077000000000001002F
:020552000000A7
:00000001FF
